{
  "contractName": "Voter",
  "abi": [
    {
      "constant": true,
      "inputs": [
        {
          "internalType": "uint256",
          "name": "",
          "type": "uint256"
        }
      ],
      "name": "options",
      "outputs": [
        {
          "internalType": "string",
          "name": "",
          "type": "string"
        }
      ],
      "payable": false,
      "stateMutability": "view",
      "type": "function"
    },
    {
      "constant": true,
      "inputs": [
        {
          "internalType": "uint256",
          "name": "",
          "type": "uint256"
        }
      ],
      "name": "votes",
      "outputs": [
        {
          "internalType": "uint256",
          "name": "",
          "type": "uint256"
        }
      ],
      "payable": false,
      "stateMutability": "view",
      "type": "function"
    },
    {
      "constant": false,
      "inputs": [
        {
          "internalType": "string",
          "name": "option",
          "type": "string"
        }
      ],
      "name": "addOption",
      "outputs": [],
      "payable": false,
      "stateMutability": "nonpayable",
      "type": "function"
    },
    {
      "constant": false,
      "inputs": [],
      "name": "startVoting",
      "outputs": [],
      "payable": false,
      "stateMutability": "nonpayable",
      "type": "function"
    },
    {
      "constant": false,
      "inputs": [
        {
          "internalType": "uint256",
          "name": "option",
          "type": "uint256"
        }
      ],
      "name": "vote",
      "outputs": [],
      "payable": false,
      "stateMutability": "nonpayable",
      "type": "function"
    },
    {
      "constant": false,
      "inputs": [
        {
          "internalType": "string",
          "name": "option",
          "type": "string"
        }
      ],
      "name": "vote",
      "outputs": [],
      "payable": false,
      "stateMutability": "nonpayable",
      "type": "function"
    },
    {
      "constant": true,
      "inputs": [],
      "name": "getVotes",
      "outputs": [
        {
          "internalType": "uint256[]",
          "name": "",
          "type": "uint256[]"
        }
      ],
      "payable": false,
      "stateMutability": "view",
      "type": "function"
    }
  ],
  "bytecode": "0x608060405234801561001057600080fd5b50610c88806100206000396000f3fe608060405234801561001057600080fd5b506004361061007d5760003560e01c8063409e22051161005b578063409e2205146101195780635df81330146101c0578063edc550dc14610202578063fc36e15b146102bd5761007d565b80630121b93f146100825780630dc96015146100b05780631ec6b60a1461010f575b600080fd5b6100ae6004803603602081101561009857600080fd5b8101908080359060200190929190505050610378565b005b6100b861054f565b6040518080602001828103825283818151815260200191508051906020019060200280838360005b838110156100fb5780820151818401526020810190506100e0565b505050509050019250505060405180910390f35b6101176105a7565b005b6101456004803603602081101561012f57600080fd5b8101908080359060200190929190505050610754565b6040518080602001828103825283818151815260200191508051906020019080838360005b8381101561018557808201518184015260208101905061016a565b50505050905090810190601f1680156101b25780820380516001836020036101000a031916815260200191505b509250505060405180910390f35b6101ec600480360360208110156101d657600080fd5b810190808035906020019092919050505061080d565b6040518082815260200191505060405180910390f35b6102bb6004803603602081101561021857600080fd5b810190808035906020019064010000000081111561023557600080fd5b82018360208201111561024757600080fd5b8035906020019184600183028401116401000000008311171561026957600080fd5b91908080601f016020809104026020016040519081016040528093929190818152602001838380828437600081840152601f19601f82011690508083019250505050505050919291929050505061082e565b005b610376600480360360208110156102d357600080fd5b81019080803590602001906401000000008111156102f057600080fd5b82018360208201111561030257600080fd5b8035906020019184600183028401116401000000008311171561032457600080fd5b91908080601f016020809104026020016040519081016040528093929190818152602001838380828437600081840152601f19601f8201169050808301925050505050505091929192905050506108f3565b005b8060001115801561038d575060038054905081105b6103ff576040517f08c379a000000000000000000000000000000000000000000000000000000000815260040180806020018281038252600e8152602001807f496e76616c6964206f7074696f6e00000000000000000000000000000000000081525060200191505060405180910390fd5b600160003373ffffffffffffffffffffffffffffffffffffffff1673ffffffffffffffffffffffffffffffffffffffff16815260200190815260200160002060009054906101000a900460ff16156104bf576040517f08c379a00000000000000000000000000000000000000000000000000000000081526004018080602001828103825260198152602001807f4163636f756e742068617320616c726561647920766f7465640000000000000081525060200191505060405180910390fd5b60018060003373ffffffffffffffffffffffffffffffffffffffff1673ffffffffffffffffffffffffffffffffffffffff16815260200190815260200160002060006101000a81548160ff02191690831515021790555060016000828154811061052557fe5b9060005260206000200154016000828154811061053e57fe5b906000526020600020018190555050565b6060600080548060200260200160405190810160405280929190818152602001828054801561059d57602002820191906000526020600020905b815481526020019060010190808311610589575b5050505050905090565b600460009054906101000a900460ff161561062a576040517f08c379a000000000000000000000000000000000000000000000000000000000815260040180806020018281038252601a8152602001807f566f74696e672068617320616c7265616479207374617274656400000000000081525060200191505060405180910390fd5b60038054905060008161063d9190610b66565b5060008090505b60038054905081101561073657610659610b92565b60405180604001604052808381526020016001151581525090508060026003848154811061068357fe5b9060005260206000200160405180828054600181600116156101000203166002900480156106e85780601f106106c65761010080835404028352918201916106e8565b820191906000526020600020905b8154815290600101906020018083116106d4575b505091505090815260200160405180910390206000820151816000015560208201518160010160006101000a81548160ff021916908315150217905550905050508080600101915050610644565b506001600460006101000a81548160ff021916908315150217905550565b6003818154811061076157fe5b906000526020600020016000915090508054600181600116156101000203166002900480601f0160208091040260200160405190810160405280929190818152602001828054600181600116156101000203166002900480156108055780601f106107da57610100808354040283529160200191610805565b820191906000526020600020905b8154815290600101906020018083116107e857829003601f168201915b505050505081565b6000818154811061081a57fe5b906000526020600020016000915090505481565b600460009054906101000a900460ff16156108b1576040517f08c379a000000000000000000000000000000000000000000000000000000000815260040180806020018281038252601a8152602001807f566f74696e672068617320616c7265616479207374617274656400000000000081525060200191505060405180910390fd5b60038190806001815401808255809150509060018203906000526020600020016000909192909190915090805190602001906108ee929190610bae565b505050565b600160003373ffffffffffffffffffffffffffffffffffffffff1673ffffffffffffffffffffffffffffffffffffffff16815260200190815260200160002060009054906101000a900460ff16156109b3576040517f08c379a00000000000000000000000000000000000000000000000000000000081526004018080602001828103825260198152602001807f4163636f756e742068617320616c726561647920766f7465640000000000000081525060200191505060405180910390fd5b6109bb610b92565b6002826040518082805190602001908083835b602083106109f157805182526020820191506020810190506020830392506109ce565b6001836020036101000a0380198251168184511680821785525050505050509050019150509081526020016040518091039020604051806040016040529081600082015481526020016001820160009054906101000a900460ff16151515158152505090508060200151610acd576040517f08c379a00000000000000000000000000000000000000000000000000000000081526004018080602001828103825260158152602001807f4f7074696f6e20646f6573206e6f74206578697374000000000000000000000081525060200191505060405180910390fd5b60018060003373ffffffffffffffffffffffffffffffffffffffff1673ffffffffffffffffffffffffffffffffffffffff16815260200190815260200160002060006101000a81548160ff02191690831515021790555060016000826000015181548110610b3757fe5b9060005260206000200154016000826000015181548110610b5457fe5b90600052602060002001819055505050565b815481835581811115610b8d57818360005260206000209182019101610b8c9190610c2e565b5b505050565b6040518060400160405280600081526020016000151581525090565b828054600181600116156101000203166002900490600052602060002090601f016020900481019282601f10610bef57805160ff1916838001178555610c1d565b82800160010185558215610c1d579182015b82811115610c1c578251825591602001919060010190610c01565b5b509050610c2a9190610c2e565b5090565b610c5091905b80821115610c4c576000816000905550600101610c34565b5090565b9056fea265627a7a723158208b6b7f0e24fc8d06907432bb7740176a509e118d89d9c45ea0c11ee1f485d80464736f6c63430005100032",
  "source": "pragma solidity ^0.5.0;\n\ncontract Voter {\n\n    struct OptionPos {\n        uint pos;\n        bool exists;\n    }\n\n    uint[] public votes;\n    mapping (address => bool) hasVoted;\n    mapping (string => OptionPos) posOfOption;\n    string[] public options;\n    bool votingStarted;\n\n    function addOption(string memory option) public {\n        require(!votingStarted, \"Voting has already started\");\n        options.push(option);\n    }\n\n    function startVoting() public {\n        require(!votingStarted, \"Voting has already started\");\n        votes.length = options.length;\n\n        for (uint i = 0; i < options.length; i++) {\n            OptionPos memory option = OptionPos(i, true);\n            posOfOption[options[i]] = option;\n        }\n        votingStarted = true;\n    }\n\n    function vote(uint option) public {\n        require(0 <= option && option < options.length, \"Invalid option\");\n        require(!hasVoted[msg.sender], \"Account has already voted\");\n\n        hasVoted[msg.sender] = true;\n        votes[option] = votes[option] + 1;\n    }\n\n    function vote(string memory option) public {\n        require(!hasVoted[msg.sender], \"Account has already voted\");\n        OptionPos memory optionPos = posOfOption[option];\n        require(optionPos.exists, \"Option does not exist\");\n\n        hasVoted[msg.sender] = true;\n        votes[optionPos.pos] = votes[optionPos.pos] + 1;\n    }\n\n    function getVotes() public view returns (uint[] memory) {\n        return votes;\n    }\n}",
  "sourcePath": "/home/exiotech/Ethereum-and-Solidity-Udemy/Pluralsight/Voter_Contract_Truffle/contracts/Voter.sol",
  "compiler": {
    "name": "solc",
    "version": "0.5.16+commit.9c3226ce.Emscripten.clang"
  },
  "schemaVersion": "3.3.1",
  "updatedAt": "2020-10-28T15:33:41.979Z",
  "networkType": "ethereum",
  "devdoc": {
    "methods": {}
  },
  "userdoc": {
    "methods": {}
  }
}