{
  "contractName": "CrowdfundingWithDeadline",
  "abi": [
    {
      "inputs": [
        {
          "internalType": "string",
          "name": "contractName",
          "type": "string"
        },
        {
          "internalType": "uint256",
          "name": "targetAmountEth",
          "type": "uint256"
        },
        {
          "internalType": "uint256",
          "name": "durationInMin",
          "type": "uint256"
        },
        {
          "internalType": "address payable",
          "name": "beneficiaryAddress",
          "type": "address"
        }
      ],
      "payable": false,
      "stateMutability": "nonpayable",
      "type": "constructor"
    },
    {
      "anonymous": false,
      "inputs": [
        {
          "indexed": false,
          "internalType": "address",
          "name": "addr",
          "type": "address"
        },
        {
          "indexed": false,
          "internalType": "uint256",
          "name": "totalCollected",
          "type": "uint256"
        },
        {
          "indexed": false,
          "internalType": "bool",
          "name": "succeeded",
          "type": "bool"
        }
      ],
      "name": "CampaignFinished",
      "type": "event"
    },
    {
      "constant": true,
      "inputs": [
        {
          "internalType": "address",
          "name": "",
          "type": "address"
        }
      ],
      "name": "amounts",
      "outputs": [
        {
          "internalType": "uint256",
          "name": "",
          "type": "uint256"
        }
      ],
      "payable": false,
      "stateMutability": "view",
      "type": "function"
    },
    {
      "constant": true,
      "inputs": [],
      "name": "beneficiary",
      "outputs": [
        {
          "internalType": "address payable",
          "name": "",
          "type": "address"
        }
      ],
      "payable": false,
      "stateMutability": "view",
      "type": "function"
    },
    {
      "constant": true,
      "inputs": [],
      "name": "collected",
      "outputs": [
        {
          "internalType": "bool",
          "name": "",
          "type": "bool"
        }
      ],
      "payable": false,
      "stateMutability": "view",
      "type": "function"
    },
    {
      "constant": true,
      "inputs": [],
      "name": "fundingDeadline",
      "outputs": [
        {
          "internalType": "uint256",
          "name": "",
          "type": "uint256"
        }
      ],
      "payable": false,
      "stateMutability": "view",
      "type": "function"
    },
    {
      "constant": true,
      "inputs": [],
      "name": "name",
      "outputs": [
        {
          "internalType": "string",
          "name": "",
          "type": "string"
        }
      ],
      "payable": false,
      "stateMutability": "view",
      "type": "function"
    },
    {
      "constant": true,
      "inputs": [],
      "name": "state",
      "outputs": [
        {
          "internalType": "enum CrowdfundingWithDeadline.State",
          "name": "",
          "type": "uint8"
        }
      ],
      "payable": false,
      "stateMutability": "view",
      "type": "function"
    },
    {
      "constant": true,
      "inputs": [],
      "name": "targetAmount",
      "outputs": [
        {
          "internalType": "uint256",
          "name": "",
          "type": "uint256"
        }
      ],
      "payable": false,
      "stateMutability": "view",
      "type": "function"
    },
    {
      "constant": true,
      "inputs": [],
      "name": "totalCollected",
      "outputs": [
        {
          "internalType": "uint256",
          "name": "",
          "type": "uint256"
        }
      ],
      "payable": false,
      "stateMutability": "view",
      "type": "function"
    },
    {
      "constant": false,
      "inputs": [],
      "name": "contribute",
      "outputs": [],
      "payable": true,
      "stateMutability": "payable",
      "type": "function"
    },
    {
      "constant": false,
      "inputs": [],
      "name": "finishCrowdfunding",
      "outputs": [],
      "payable": false,
      "stateMutability": "nonpayable",
      "type": "function"
    },
    {
      "constant": false,
      "inputs": [],
      "name": "collect",
      "outputs": [],
      "payable": false,
      "stateMutability": "nonpayable",
      "type": "function"
    },
    {
      "constant": false,
      "inputs": [],
      "name": "withdraw",
      "outputs": [],
      "payable": false,
      "stateMutability": "nonpayable",
      "type": "function"
    },
    {
      "constant": true,
      "inputs": [],
      "name": "beforeDeadline",
      "outputs": [
        {
          "internalType": "bool",
          "name": "",
          "type": "bool"
        }
      ],
      "payable": false,
      "stateMutability": "view",
      "type": "function"
    }
  ],
  "bytecode": "0x60806040523480156200001157600080fd5b5060405162000fdd38038062000fdd833981810160405260808110156200003757600080fd5b81019080805160405193929190846401000000008211156200005857600080fd5b838201915060208201858111156200006f57600080fd5b82518660018202830111640100000000821117156200008d57600080fd5b8083526020830192505050908051906020019080838360005b83811015620000c3578082015181840152602081019050620000a6565b50505050905090810190601f168015620000f15780820380516001836020036101000a031916815260200191505b50604052602001805190602001909291908051906020019092919080519060200190929190505050836000908051906020019062000131929190620002e3565b5073__Utils_________________________________63d8916bb96001546040518263ffffffff1660e01b81526004018082815260200191505060206040518083038186803b1580156200018457600080fd5b505af415801562000199573d6000803e3d6000fd5b505050506040513d6020811015620001b057600080fd5b810190808051906020019092919050505060018190555073__Utils_________________________________63529b380f836040518263ffffffff1660e01b81526004018082815260200191505060206040518083038186803b1580156200021757600080fd5b505af41580156200022c573d6000803e3d6000fd5b505050506040513d60208110156200024357600080fd5b810190808051906020019092919050505062000264620002db60201b60201c565b0160028190555080600360006101000a81548173ffffffffffffffffffffffffffffffffffffffff021916908373ffffffffffffffffffffffffffffffffffffffff1602179055506000600360146101000a81548160ff02191690836003811115620002cc57fe5b02179055505050505062000392565b600042905090565b828054600181600116156101000203166002900490600052602060002090601f016020900481019282601f106200032657805160ff191683800117855562000357565b8280016001018555821562000357579182015b828111156200035657825182559160200191906001019062000339565b5b5090506200036691906200036a565b5090565b6200038f91905b808211156200038b57600081600090555060010162000371565b5090565b90565b610c3b80620003a26000396000f3fe6080604052600436106100c25760003560e01c806384bcefd41161007f578063c19d93fb11610059578063c19d93fb146102f5578063d7bb99ba1461032e578063e29eb83614610338578063e522538114610363576100c2565b806384bcefd414610284578063953b8fb8146102b3578063a84669de146102de576100c2565b806306fdde03146100c757806338af3eed146101575780633ccfd60b146101ae57806355a3b2c1146101c557806368bc00411461022a578063796b23bb14610259575b600080fd5b3480156100d357600080fd5b506100dc61037a565b6040518080602001828103825283818151815260200191508051906020019080838360005b8381101561011c578082015181840152602081019050610101565b50505050905090810190601f1680156101495780820380516001836020036101000a031916815260200191505b509250505060405180910390f35b34801561016357600080fd5b5061016c610418565b604051808273ffffffffffffffffffffffffffffffffffffffff1673ffffffffffffffffffffffffffffffffffffffff16815260200191505060405180910390f35b3480156101ba57600080fd5b506101c361043e565b005b3480156101d157600080fd5b50610214600480360360208110156101e857600080fd5b81019080803573ffffffffffffffffffffffffffffffffffffffff16906020019092919050505061069a565b6040518082815260200191505060405180910390f35b34801561023657600080fd5b5061023f6106b2565b604051808215151515815260200191505060405180910390f35b34801561026557600080fd5b5061026e6106c5565b6040518082815260200191505060405180910390f35b34801561029057600080fd5b506102996106cb565b604051808215151515815260200191505060405180910390f35b3480156102bf57600080fd5b506102c86106de565b6040518082815260200191505060405180910390f35b3480156102ea57600080fd5b506102f36106e4565b005b34801561030157600080fd5b5061030a6108cb565b6040518082600381111561031a57fe5b60ff16815260200191505060405180910390f35b6103366108de565b005b34801561034457600080fd5b5061034d610a5e565b6040518082815260200191505060405180910390f35b34801561036f57600080fd5b50610378610a64565b005b60008054600181600116156101000203166002900480601f0160208091040260200160405190810160405280929190818152602001828054600181600116156101000203166002900480156104105780601f106103e557610100808354040283529160200191610410565b820191906000526020600020905b8154815290600101906020018083116103f357829003601f168201915b505050505081565b600360009054906101000a900473ffffffffffffffffffffffffffffffffffffffff1681565b600180600381111561044c57fe5b600360149054906101000a900460ff16600381111561046757fe5b146104da576040517f08c379a000000000000000000000000000000000000000000000000000000000815260040180806020018281038252600d8152602001807f496e76616c69642053746174650000000000000000000000000000000000000081525060200191505060405180910390fd5b6000600460003373ffffffffffffffffffffffffffffffffffffffff1673ffffffffffffffffffffffffffffffffffffffff168152602001908152602001600020541161058f576040517f08c379a00000000000000000000000000000000000000000000000000000000081526004018080602001828103825260188152602001807f4e6f7468696e672077617320636f6e747269627574656421000000000000000081525060200191505060405180910390fd5b6000600460003373ffffffffffffffffffffffffffffffffffffffff1673ffffffffffffffffffffffffffffffffffffffff1681526020019081526020016000205490506000600460003373ffffffffffffffffffffffffffffffffffffffff1673ffffffffffffffffffffffffffffffffffffffff168152602001908152602001600020819055503373ffffffffffffffffffffffffffffffffffffffff166108fc829081150290604051600060405180830381858888f193505050506106965780600460003373ffffffffffffffffffffffffffffffffffffffff1673ffffffffffffffffffffffffffffffffffffffff168152602001908152602001600020819055505b5050565b60046020528060005260406000206000915090505481565b60006002546106bf610bae565b10905090565b60025481565b600560009054906101000a900460ff1681565b60015481565b60008060038111156106f257fe5b600360149054906101000a900460ff16600381111561070d57fe5b14610780576040517f08c379a000000000000000000000000000000000000000000000000000000000815260040180806020018281038252600d8152602001807f496e76616c69642053746174650000000000000000000000000000000000000081525060200191505060405180910390fd5b6107886106b2565b156107de576040517f08c379a000000000000000000000000000000000000000000000000000000000815260040180806020018281038252602c815260200180610bb7602c913960400191505060405180910390fd5b600560009054906101000a900460ff1661081b576001600360146101000a81548160ff0219169083600381111561081157fe5b0217905550610840565b6002600360146101000a81548160ff0219169083600381111561083a57fe5b02179055505b7f6fa7e87ebbd87ed4f1c40bba63144f68fd2bb022fb748ab3b61b5411c39bd47433600654600560009054906101000a900460ff16604051808473ffffffffffffffffffffffffffffffffffffffff1673ffffffffffffffffffffffffffffffffffffffff16815260200183815260200182151515158152602001935050505060405180910390a150565b600360149054906101000a900460ff1681565b60008060038111156108ec57fe5b600360149054906101000a900460ff16600381111561090757fe5b1461097a576040517f08c379a000000000000000000000000000000000000000000000000000000000815260040180806020018281038252600d8152602001807f496e76616c69642053746174650000000000000000000000000000000000000081525060200191505060405180910390fd5b6109826106b2565b6109d7576040517f08c379a0000000000000000000000000000000000000000000000000000000008152600401808060200182810382526024815260200180610be36024913960400191505060405180910390fd5b34600460003373ffffffffffffffffffffffffffffffffffffffff1673ffffffffffffffffffffffffffffffffffffffff168152602001908152602001600020600082825401925050819055503460066000828254019250508190555060015460065410610a5b576001600560006101000a81548160ff0219169083151502179055505b50565b60065481565b6002806003811115610a7257fe5b600360149054906101000a900460ff166003811115610a8d57fe5b14610b00576040517f08c379a000000000000000000000000000000000000000000000000000000000815260040180806020018281038252600d8152602001807f496e76616c69642053746174650000000000000000000000000000000000000081525060200191505060405180910390fd5b600360009054906101000a900473ffffffffffffffffffffffffffffffffffffffff1673ffffffffffffffffffffffffffffffffffffffff166108fc6006549081150290604051600060405180830381858888f1935050505015610b865760038060146101000a81548160ff02191690836003811115610b7c57fe5b0217905550610bab565b6001600360146101000a81548160ff02191690836003811115610ba557fe5b02179055505b50565b60004290509056fe43616e6e6f742066696e696e73682063616d706169676e206265666f72652074686520646561646c696e65214e6f20636f6e747269627574696f6e732061667465722074686520646561646c696e6521a265627a7a7231582008c9e5cd75824fead241d686dc0b0637e7a3b41ad4a65d9c62ad0368249570c064736f6c63430005100032",
  "source": "pragma solidity ^0.5.0;\n\nimport \"./Utils.sol\";\n\ncontract CrowdfundingWithDeadline {\n\n    using Utils for *;\n    \n    enum State { Ongoing, Failed, Succeeded, Paidout }\n\n    event CampaignFinished(\n        address addr,\n        uint totalCollected,\n        bool succeeded\n    );\n\n    string public name;\n    uint public targetAmount;\n    uint public fundingDeadline;\n    address payable public beneficiary;\n    State public state;\n    mapping(address => uint) public amounts;\n    bool public collected;\n    uint public totalCollected;\n\n    modifier inState(State expectedState) {\n        require(state == expectedState, \"Invalid State\");\n        _;\n    }\n\n    constructor(string memory contractName, uint targetAmountEth, uint durationInMin, address payable beneficiaryAddress) public {\n        name = contractName;\n        targetAmount = Utils.etherToWei(targetAmount);\n        fundingDeadline = currentTime() + Utils.minutesToSeconds(durationInMin);\n        beneficiary = beneficiaryAddress;\n        state = State.Ongoing;\n    }\n\n    function contribute() public payable inState(State.Ongoing) {\n        require(beforeDeadline(), \"No contributions after the deadline!\");\n        amounts[msg.sender] += msg.value;\n        totalCollected += msg.value;\n\n        if(totalCollected >= targetAmount) {\n            collected = true;\n        }\n    }\n\n    function finishCrowdfunding() public inState(State.Ongoing) {\n        require(!beforeDeadline(), \"Cannot fininsh campaign before the deadline!\");\n\n        if(!collected) {\n            state = State.Failed;\n        } else {\n            state = State.Succeeded;\n        }\n\n        emit CampaignFinished(msg.sender, totalCollected, collected);\n    }\n\n    function collect() public inState(State.Succeeded) {\n        if(beneficiary.send(totalCollected)) {\n            state = State.Paidout;\n        } else {\n            state = State.Failed;\n        }\n    }\n\n    function withdraw() public inState(State.Failed) {\n        require(amounts[msg.sender] > 0, \"Nothing was contributed!\");\n        uint contribution = amounts[msg.sender];\n        amounts[msg.sender] = 0;\n\n        if(!msg.sender.send(contribution)) {\n            amounts[msg.sender] = contribution;\n        }\n    }\n\n    function beforeDeadline() public view returns(bool) {\n        return currentTime() < fundingDeadline;\n    }\n\n    function currentTime() internal view returns(uint) {\n        return now;\n    }\n}",
  "sourcePath": "/home/exiotech/Ethereum-and-Solidity-Udemy/Pluralsight/Crowdfunding/contracts/CrowdfundingWithDeadline.sol",
  "compiler": {
    "name": "solc",
    "version": "0.5.16+commit.9c3226ce.Emscripten.clang"
  },
  "schemaVersion": "3.3.1",
  "updatedAt": "2020-11-03T13:57:24.201Z",
  "networkType": "ethereum",
  "devdoc": {
    "methods": {}
  },
  "userdoc": {
    "methods": {}
  }
}