{
  "contractName": "TestCrowdfundingWithDeadline",
  "abi": [
    {
      "inputs": [
        {
          "internalType": "string",
          "name": "contractName",
          "type": "string"
        },
        {
          "internalType": "uint256",
          "name": "targetAmountEth",
          "type": "uint256"
        },
        {
          "internalType": "uint256",
          "name": "durationInMin",
          "type": "uint256"
        },
        {
          "internalType": "address payable",
          "name": "beneficiaryAddress",
          "type": "address"
        }
      ],
      "payable": false,
      "stateMutability": "nonpayable",
      "type": "constructor"
    },
    {
      "anonymous": false,
      "inputs": [
        {
          "indexed": false,
          "internalType": "address",
          "name": "addr",
          "type": "address"
        },
        {
          "indexed": false,
          "internalType": "uint256",
          "name": "totalCollected",
          "type": "uint256"
        },
        {
          "indexed": false,
          "internalType": "bool",
          "name": "succeeded",
          "type": "bool"
        }
      ],
      "name": "CampaignFinished",
      "type": "event"
    },
    {
      "constant": true,
      "inputs": [
        {
          "internalType": "address",
          "name": "",
          "type": "address"
        }
      ],
      "name": "amounts",
      "outputs": [
        {
          "internalType": "uint256",
          "name": "",
          "type": "uint256"
        }
      ],
      "payable": false,
      "stateMutability": "view",
      "type": "function"
    },
    {
      "constant": true,
      "inputs": [],
      "name": "beforeDeadline",
      "outputs": [
        {
          "internalType": "bool",
          "name": "",
          "type": "bool"
        }
      ],
      "payable": false,
      "stateMutability": "view",
      "type": "function"
    },
    {
      "constant": true,
      "inputs": [],
      "name": "beneficiary",
      "outputs": [
        {
          "internalType": "address payable",
          "name": "",
          "type": "address"
        }
      ],
      "payable": false,
      "stateMutability": "view",
      "type": "function"
    },
    {
      "constant": false,
      "inputs": [],
      "name": "collect",
      "outputs": [],
      "payable": false,
      "stateMutability": "nonpayable",
      "type": "function"
    },
    {
      "constant": true,
      "inputs": [],
      "name": "collected",
      "outputs": [
        {
          "internalType": "bool",
          "name": "",
          "type": "bool"
        }
      ],
      "payable": false,
      "stateMutability": "view",
      "type": "function"
    },
    {
      "constant": false,
      "inputs": [],
      "name": "contribute",
      "outputs": [],
      "payable": true,
      "stateMutability": "payable",
      "type": "function"
    },
    {
      "constant": false,
      "inputs": [],
      "name": "finishCrowdfunding",
      "outputs": [],
      "payable": false,
      "stateMutability": "nonpayable",
      "type": "function"
    },
    {
      "constant": true,
      "inputs": [],
      "name": "fundingDeadline",
      "outputs": [
        {
          "internalType": "uint256",
          "name": "",
          "type": "uint256"
        }
      ],
      "payable": false,
      "stateMutability": "view",
      "type": "function"
    },
    {
      "constant": true,
      "inputs": [],
      "name": "name",
      "outputs": [
        {
          "internalType": "string",
          "name": "",
          "type": "string"
        }
      ],
      "payable": false,
      "stateMutability": "view",
      "type": "function"
    },
    {
      "constant": true,
      "inputs": [],
      "name": "state",
      "outputs": [
        {
          "internalType": "enum CrowdfundingWithDeadline.State",
          "name": "",
          "type": "uint8"
        }
      ],
      "payable": false,
      "stateMutability": "view",
      "type": "function"
    },
    {
      "constant": true,
      "inputs": [],
      "name": "targetAmount",
      "outputs": [
        {
          "internalType": "uint256",
          "name": "",
          "type": "uint256"
        }
      ],
      "payable": false,
      "stateMutability": "view",
      "type": "function"
    },
    {
      "constant": true,
      "inputs": [],
      "name": "totalCollected",
      "outputs": [
        {
          "internalType": "uint256",
          "name": "",
          "type": "uint256"
        }
      ],
      "payable": false,
      "stateMutability": "view",
      "type": "function"
    },
    {
      "constant": false,
      "inputs": [],
      "name": "withdraw",
      "outputs": [],
      "payable": false,
      "stateMutability": "nonpayable",
      "type": "function"
    },
    {
      "constant": false,
      "inputs": [
        {
          "internalType": "uint256",
          "name": "newTime",
          "type": "uint256"
        }
      ],
      "name": "setCurrentTime",
      "outputs": [],
      "payable": false,
      "stateMutability": "nonpayable",
      "type": "function"
    }
  ],
  "bytecode": "0x60806040523480156200001157600080fd5b506040516200104938038062001049833981810160405260808110156200003757600080fd5b81019080805160405193929190846401000000008211156200005857600080fd5b838201915060208201858111156200006f57600080fd5b82518660018202830111640100000000821117156200008d57600080fd5b8083526020830192505050908051906020019080838360005b83811015620000c3578082015181840152602081019050620000a6565b50505050905090810190601f168015620000f15780820380516001836020036101000a031916815260200191505b5060405260200180519060200190929190805190602001909291908051906020019092919050505083838383836000908051906020019062000135929190620002ed565b5073__Utils_________________________________63d8916bb96001546040518263ffffffff1660e01b81526004018082815260200191505060206040518083038186803b1580156200018857600080fd5b505af41580156200019d573d6000803e3d6000fd5b505050506040513d6020811015620001b457600080fd5b810190808051906020019092919050505060018190555073__Utils_________________________________63529b380f836040518263ffffffff1660e01b81526004018082815260200191505060206040518083038186803b1580156200021b57600080fd5b505af415801562000230573d6000803e3d6000fd5b505050506040513d60208110156200024757600080fd5b810190808051906020019092919050505062000268620002e360201b60201c565b0160028190555080600360006101000a81548173ffffffffffffffffffffffffffffffffffffffff021916908373ffffffffffffffffffffffffffffffffffffffff1602179055506000600360146101000a81548160ff02191690836003811115620002d057fe5b021790555050505050505050506200039c565b6000600754905090565b828054600181600116156101000203166002900490600052602060002090601f016020900481019282601f106200033057805160ff191683800117855562000361565b8280016001018555821562000361579182015b828111156200036057825182559160200191906001019062000343565b5b50905062000370919062000374565b5090565b6200039991905b80821115620003955760008160009055506001016200037b565b5090565b90565b610c9d80620003ac6000396000f3fe6080604052600436106100dd5760003560e01c806384bcefd41161007f578063c19d93fb11610059578063c19d93fb1461034b578063d7bb99ba14610384578063e29eb8361461038e578063e5225381146103b9576100dd565b806384bcefd4146102da578063953b8fb814610309578063a84669de14610334576100dd565b80633ccfd60b116100bb5780633ccfd60b1461020457806355a3b2c11461021b57806368bc004114610280578063796b23bb146102af576100dd565b806306fdde03146100e257806322f8e5661461017257806338af3eed146101ad575b600080fd5b3480156100ee57600080fd5b506100f76103d0565b6040518080602001828103825283818151815260200191508051906020019080838360005b8381101561013757808201518184015260208101905061011c565b50505050905090810190601f1680156101645780820380516001836020036101000a031916815260200191505b509250505060405180910390f35b34801561017e57600080fd5b506101ab6004803603602081101561019557600080fd5b810190808035906020019092919050505061046e565b005b3480156101b957600080fd5b506101c2610478565b604051808273ffffffffffffffffffffffffffffffffffffffff1673ffffffffffffffffffffffffffffffffffffffff16815260200191505060405180910390f35b34801561021057600080fd5b5061021961049e565b005b34801561022757600080fd5b5061026a6004803603602081101561023e57600080fd5b81019080803573ffffffffffffffffffffffffffffffffffffffff1690602001909291905050506106fa565b6040518082815260200191505060405180910390f35b34801561028c57600080fd5b50610295610712565b604051808215151515815260200191505060405180910390f35b3480156102bb57600080fd5b506102c4610725565b6040518082815260200191505060405180910390f35b3480156102e657600080fd5b506102ef61072b565b604051808215151515815260200191505060405180910390f35b34801561031557600080fd5b5061031e61073e565b6040518082815260200191505060405180910390f35b34801561034057600080fd5b50610349610744565b005b34801561035757600080fd5b5061036061092b565b6040518082600381111561037057fe5b60ff16815260200191505060405180910390f35b61038c61093e565b005b34801561039a57600080fd5b506103a3610abe565b6040518082815260200191505060405180910390f35b3480156103c557600080fd5b506103ce610ac4565b005b60008054600181600116156101000203166002900480601f0160208091040260200160405190810160405280929190818152602001828054600181600116156101000203166002900480156104665780601f1061043b57610100808354040283529160200191610466565b820191906000526020600020905b81548152906001019060200180831161044957829003601f168201915b505050505081565b8060078190555050565b600360009054906101000a900473ffffffffffffffffffffffffffffffffffffffff1681565b60018060038111156104ac57fe5b600360149054906101000a900460ff1660038111156104c757fe5b1461053a576040517f08c379a000000000000000000000000000000000000000000000000000000000815260040180806020018281038252600d8152602001807f496e76616c69642053746174650000000000000000000000000000000000000081525060200191505060405180910390fd5b6000600460003373ffffffffffffffffffffffffffffffffffffffff1673ffffffffffffffffffffffffffffffffffffffff16815260200190815260200160002054116105ef576040517f08c379a00000000000000000000000000000000000000000000000000000000081526004018080602001828103825260188152602001807f4e6f7468696e672077617320636f6e747269627574656421000000000000000081525060200191505060405180910390fd5b6000600460003373ffffffffffffffffffffffffffffffffffffffff1673ffffffffffffffffffffffffffffffffffffffff1681526020019081526020016000205490506000600460003373ffffffffffffffffffffffffffffffffffffffff1673ffffffffffffffffffffffffffffffffffffffff168152602001908152602001600020819055503373ffffffffffffffffffffffffffffffffffffffff166108fc829081150290604051600060405180830381858888f193505050506106f65780600460003373ffffffffffffffffffffffffffffffffffffffff1673ffffffffffffffffffffffffffffffffffffffff168152602001908152602001600020819055505b5050565b60046020528060005260406000206000915090505481565b600060025461071f610c0e565b10905090565b60025481565b600560009054906101000a900460ff1681565b60015481565b600080600381111561075257fe5b600360149054906101000a900460ff16600381111561076d57fe5b146107e0576040517f08c379a000000000000000000000000000000000000000000000000000000000815260040180806020018281038252600d8152602001807f496e76616c69642053746174650000000000000000000000000000000000000081525060200191505060405180910390fd5b6107e8610712565b1561083e576040517f08c379a000000000000000000000000000000000000000000000000000000000815260040180806020018281038252602c815260200180610c19602c913960400191505060405180910390fd5b600560009054906101000a900460ff1661087b576001600360146101000a81548160ff0219169083600381111561087157fe5b02179055506108a0565b6002600360146101000a81548160ff0219169083600381111561089a57fe5b02179055505b7f6fa7e87ebbd87ed4f1c40bba63144f68fd2bb022fb748ab3b61b5411c39bd47433600654600560009054906101000a900460ff16604051808473ffffffffffffffffffffffffffffffffffffffff1673ffffffffffffffffffffffffffffffffffffffff16815260200183815260200182151515158152602001935050505060405180910390a150565b600360149054906101000a900460ff1681565b600080600381111561094c57fe5b600360149054906101000a900460ff16600381111561096757fe5b146109da576040517f08c379a000000000000000000000000000000000000000000000000000000000815260040180806020018281038252600d8152602001807f496e76616c69642053746174650000000000000000000000000000000000000081525060200191505060405180910390fd5b6109e2610712565b610a37576040517f08c379a0000000000000000000000000000000000000000000000000000000008152600401808060200182810382526024815260200180610c456024913960400191505060405180910390fd5b34600460003373ffffffffffffffffffffffffffffffffffffffff1673ffffffffffffffffffffffffffffffffffffffff168152602001908152602001600020600082825401925050819055503460066000828254019250508190555060015460065410610abb576001600560006101000a81548160ff0219169083151502179055505b50565b60065481565b6002806003811115610ad257fe5b600360149054906101000a900460ff166003811115610aed57fe5b14610b60576040517f08c379a000000000000000000000000000000000000000000000000000000000815260040180806020018281038252600d8152602001807f496e76616c69642053746174650000000000000000000000000000000000000081525060200191505060405180910390fd5b600360009054906101000a900473ffffffffffffffffffffffffffffffffffffffff1673ffffffffffffffffffffffffffffffffffffffff166108fc6006549081150290604051600060405180830381858888f1935050505015610be65760038060146101000a81548160ff02191690836003811115610bdc57fe5b0217905550610c0b565b6001600360146101000a81548160ff02191690836003811115610c0557fe5b02179055505b50565b600060075490509056fe43616e6e6f742066696e696e73682063616d706169676e206265666f72652074686520646561646c696e65214e6f20636f6e747269627574696f6e732061667465722074686520646561646c696e6521a265627a7a72315820ca7849a76b206eaa4cfd2cf811ea919abd76cd6670267fdac40a77a40588b1bd64736f6c63430005100032",
  "source": "pragma solidity ^0.5.0;\nimport \"./CrowdfundingWithDeadline.sol\";\n\ncontract TestCrowdfundingWithDeadline is CrowdfundingWithDeadline {\n    uint time;\n\n    constructor(string memory contractName, uint targetAmountEth, uint durationInMin, address payable beneficiaryAddress) \n    CrowdfundingWithDeadline(contractName, targetAmountEth, durationInMin, beneficiaryAddress) public {\n        \n    }\n    \n    function currentTime() internal view returns(uint) {\n        return time;\n    }\n\n    function setCurrentTime(uint newTime) public {\n        time = newTime;\n    }\n}",
  "sourcePath": "/home/exiotech/Ethereum-and-Solidity-Udemy/Pluralsight/Crowdfunding/contracts/TestCrowdfundingWithDeadline.sol",
  "compiler": {
    "name": "solc",
    "version": "0.5.16+commit.9c3226ce.Emscripten.clang"
  },
  "schemaVersion": "3.3.1",
  "updatedAt": "2020-11-03T13:57:23.624Z",
  "networkType": "ethereum",
  "devdoc": {
    "methods": {}
  },
  "userdoc": {
    "methods": {}
  }
}